{
  "contractName": "CoinFlip",
  "abi": [
    {
      "anonymous": false,
      "inputs": [
        {
          "indexed": false,
          "internalType": "string",
          "name": "description",
          "type": "string"
        }
      ],
      "name": "LogNewProvableQuery",
      "type": "event"
    },
    {
      "anonymous": false,
      "inputs": [
        {
          "indexed": false,
          "internalType": "uint256",
          "name": "randomNumber",
          "type": "uint256"
        }
      ],
      "name": "generatedRandomNumber",
      "type": "event"
    },
    {
      "anonymous": false,
      "inputs": [
        {
          "indexed": false,
          "internalType": "uint256",
          "name": "num",
          "type": "uint256"
        }
      ],
      "name": "success",
      "type": "event"
    },
    {
      "constant": false,
      "inputs": [
        {
          "internalType": "bytes32",
          "name": "_queryId",
          "type": "bytes32"
        },
        {
          "internalType": "string",
          "name": "_result",
          "type": "string"
        },
        {
          "internalType": "bytes",
          "name": "_proof",
          "type": "bytes"
        }
      ],
      "name": "__callback",
      "outputs": [],
      "payable": false,
      "stateMutability": "nonpayable",
      "type": "function"
    },
    {
      "constant": false,
      "inputs": [],
      "name": "destroy",
      "outputs": [],
      "payable": false,
      "stateMutability": "nonpayable",
      "type": "function"
    },
    {
      "constant": true,
      "inputs": [],
      "name": "getRandomNumber",
      "outputs": [
        {
          "internalType": "uint256",
          "name": "",
          "type": "uint256"
        }
      ],
      "payable": false,
      "stateMutability": "view",
      "type": "function"
    },
    {
      "constant": true,
      "inputs": [],
      "name": "owner",
      "outputs": [
        {
          "internalType": "address",
          "name": "",
          "type": "address"
        }
      ],
      "payable": false,
      "stateMutability": "view",
      "type": "function"
    },
    {
      "constant": true,
      "inputs": [
        {
          "internalType": "address",
          "name": "",
          "type": "address"
        }
      ],
      "name": "queryIDs",
      "outputs": [
        {
          "internalType": "bytes32",
          "name": "",
          "type": "bytes32"
        }
      ],
      "payable": false,
      "stateMutability": "view",
      "type": "function"
    },
    {
      "constant": true,
      "inputs": [
        {
          "internalType": "address",
          "name": "",
          "type": "address"
        },
        {
          "internalType": "bytes32",
          "name": "",
          "type": "bytes32"
        }
      ],
      "name": "randomInt",
      "outputs": [
        {
          "internalType": "uint256",
          "name": "",
          "type": "uint256"
        }
      ],
      "payable": false,
      "stateMutability": "view",
      "type": "function"
    },
    {
      "constant": false,
      "inputs": [],
      "name": "testRandom",
      "outputs": [
        {
          "internalType": "bytes32",
          "name": "",
          "type": "bytes32"
        }
      ],
      "payable": false,
      "stateMutability": "nonpayable",
      "type": "function"
    },
    {
      "constant": false,
      "inputs": [],
      "name": "update",
      "outputs": [],
      "payable": true,
      "stateMutability": "payable",
      "type": "function"
    },
    {
      "constant": false,
      "inputs": [
        {
          "internalType": "string",
          "name": "option",
          "type": "string"
        }
      ],
      "name": "betAmount",
      "outputs": [],
      "payable": true,
      "stateMutability": "payable",
      "type": "function"
    },
    {
      "constant": false,
      "inputs": [],
      "name": "claimRewards",
      "outputs": [],
      "payable": true,
      "stateMutability": "payable",
      "type": "function"
    },
    {
      "constant": false,
      "inputs": [],
      "name": "withdrawAll",
      "outputs": [],
      "payable": true,
      "stateMutability": "payable",
      "type": "function"
    },
    {
      "constant": true,
      "inputs": [],
      "name": "checkContractBalance",
      "outputs": [
        {
          "internalType": "uint256",
          "name": "",
          "type": "uint256"
        }
      ],
      "payable": false,
      "stateMutability": "view",
      "type": "function"
    },
    {
      "constant": false,
      "inputs": [],
      "name": "depositIntoContract",
      "outputs": [],
      "payable": true,
      "stateMutability": "payable",
      "type": "function"
    },
    {
      "constant": true,
      "inputs": [],
      "name": "getAccountBalance",
      "outputs": [
        {
          "internalType": "uint256",
          "name": "",
          "type": "uint256"
        }
      ],
      "payable": false,
      "stateMutability": "view",
      "type": "function"
    },
    {
      "constant": true,
      "inputs": [],
      "name": "getPlayer",
      "outputs": [
        {
          "internalType": "uint256",
          "name": "",
          "type": "uint256"
        },
        {
          "internalType": "uint256",
          "name": "",
          "type": "uint256"
        },
        {
          "internalType": "uint256",
          "name": "",
          "type": "uint256"
        },
        {
          "internalType": "uint256",
          "name": "",
          "type": "uint256"
        },
        {
          "internalType": "uint256",
          "name": "",
          "type": "uint256"
        }
      ],
      "payable": false,
      "stateMutability": "view",
      "type": "function"
    }
  ],
  "bytecode": "0x6080604052336000806101000a81548173ffffffffffffffffffffffffffffffffffffffff021916908373ffffffffffffffffffffffffffffffffffffffff160217905550620000546200005a60201b60201c565b620003e5565b6000809050600062030d40905062000077620000c860201b60201c565b507fc4dc360d0a9c0677a3379ae0a3d81e887f761e65fdf3d7e00859d1bcd3c4738960405180806020018281038252603681526020018062001da66036913960400191505060405180910390a15050565b600060405180807f746573740000000000000000000000000000000000000000000000000000000081525060040190506040518091039020600260003373ffffffffffffffffffffffffffffffffffffffff1673ffffffffffffffffffffffffffffffffffffffff16815260200190815260200160002081905550620001ff600260003373ffffffffffffffffffffffffffffffffffffffff1673ffffffffffffffffffffffffffffffffffffffff168152602001908152602001600020546040518060400160405280600181526020017f32000000000000000000000000000000000000000000000000000000000000008152506040518060400160405280600481526020017f74657374000000000000000000000000000000000000000000000000000000008152506200024460201b60201c565b600260003373ffffffffffffffffffffffffffffffffffffffff1673ffffffffffffffffffffffffffffffffffffffff16815260200190815260200160002054905090565b6004826040516020018082805190602001908083835b602083106200027f57805182526020820191506020810190506020830392506200025a565b6001836020036101000a0380198251168184511680821785525050505050509050019150506040516020818303038152906040528051906020012060001c81620002c557fe5b06600160003373ffffffffffffffffffffffffffffffffffffffff1673ffffffffffffffffffffffffffffffffffffffff1681526020019081526020016000206000858152602001908152602001600020819055507fc13d60fe9dffdb6908d2d446cd18134373a51db0738ee04f296eeb9128121cbc600160003373ffffffffffffffffffffffffffffffffffffffff1673ffffffffffffffffffffffffffffffffffffffff1681526020019081526020016000206000600260003373ffffffffffffffffffffffffffffffffffffffff1673ffffffffffffffffffffffffffffffffffffffff168152602001908152602001600020548152602001908152602001600020546040518082815260200191505060405180910390a1505050565b6119b180620003f56000396000f3fe6080604052600436106100e85760003560e01c806383197ef01161008a578063a2e6204511610059578063a2e620451461049f578063c864d4b4146104a9578063dbdff2c114610518578063fbddd14b14610543576100e8565b806383197ef01461036c578063853828b6146103835780638da5cb5b1461038d5780639358c39e146103e4576100e8565b806338bbfa50116100c657806338bbfa50146101a35780634898858a1461030c57806350312c9e146103165780636896fabf14610341576100e8565b80632081173a146100ed5780633308f42d14610152578063372500ab14610199575b600080fd5b3480156100f957600080fd5b5061013c6004803603602081101561011057600080fd5b81019080803573ffffffffffffffffffffffffffffffffffffffff16906020019092919050505061056e565b6040518082815260200191505060405180910390f35b34801561015e57600080fd5b50610167610586565b604051808681526020018581526020018481526020018381526020018281526020019550505050505060405180910390f35b6101a16106ee565b005b3480156101af57600080fd5b5061030a600480360360608110156101c657600080fd5b8101908080359060200190929190803590602001906401000000008111156101ed57600080fd5b8201836020820111156101ff57600080fd5b8035906020019184600183028401116401000000008311171561022157600080fd5b91908080601f016020809104026020016040519081016040528093929190818152602001838380828437600081840152601f19601f8201169050808301925050505050505091929192908035906020019064010000000081111561028457600080fd5b82018360208201111561029657600080fd5b803590602001918460018302840111640100000000831117156102b857600080fd5b91908080601f016020809104026020016040519081016040528093929190818152602001838380828437600081840152601f19601f820116905080830192505050505050509192919290505050610980565b005b610314610b1e565b005b34801561032257600080fd5b5061032b610bc0565b6040518082815260200191505060405180910390f35b34801561034d57600080fd5b50610356610bdf565b6040518082815260200191505060405180910390f35b34801561037857600080fd5b50610381610c29565b005b61038b610ca0565b005b34801561039957600080fd5b506103a2610d59565b604051808273ffffffffffffffffffffffffffffffffffffffff1673ffffffffffffffffffffffffffffffffffffffff16815260200191505060405180910390f35b61049d600480360360208110156103fa57600080fd5b810190808035906020019064010000000081111561041757600080fd5b82018360208201111561042957600080fd5b8035906020019184600183028401116401000000008311171561044b57600080fd5b91908080601f016020809104026020016040519081016040528093929190818152602001838380828437600081840152601f19601f820116905080830192505050505050509192919290505050610d7e565b005b6104a7611008565b005b3480156104b557600080fd5b50610502600480360360408110156104cc57600080fd5b81019080803573ffffffffffffffffffffffffffffffffffffffff1690602001909291908035906020019092919050505061106d565b6040518082815260200191505060405180910390f35b34801561052457600080fd5b5061052d611092565b6040518082815260200191505060405180910390f35b34801561054f57600080fd5b50610558611129565b6040518082815260200191505060405180910390f35b60026020528060005260406000206000915090505481565b6000806000806000600360003373ffffffffffffffffffffffffffffffffffffffff1673ffffffffffffffffffffffffffffffffffffffff16815260200190815260200160002060000154600360003373ffffffffffffffffffffffffffffffffffffffff1673ffffffffffffffffffffffffffffffffffffffff16815260200190815260200160002060010154600360003373ffffffffffffffffffffffffffffffffffffffff1673ffffffffffffffffffffffffffffffffffffffff16815260200190815260200160002060020154600360003373ffffffffffffffffffffffffffffffffffffffff1673ffffffffffffffffffffffffffffffffffffffff16815260200190815260200160002060030154600360003373ffffffffffffffffffffffffffffffffffffffff1673ffffffffffffffffffffffffffffffffffffffff16815260200190815260200160002060040154945094509450945094509091929394565b67016345785d8a0000600360003373ffffffffffffffffffffffffffffffffffffffff1673ffffffffffffffffffffffffffffffffffffffff1681526020019081526020016000206001015410156107ae576040517f08c379a000000000000000000000000000000000000000000000000000000000815260040180806020018281038252601d8152602001807f596f752068617665206e6f207265776172647320746f20636c61696d2e00000081525060200191505060405180910390fd5b600360003373ffffffffffffffffffffffffffffffffffffffff1673ffffffffffffffffffffffffffffffffffffffff168152602001908152602001600020600101543073ffffffffffffffffffffffffffffffffffffffff16311161085f576040517f08c379a000000000000000000000000000000000000000000000000000000000815260040180806020018281038252602c81526020018061191b602c913960400191505060405180910390fd5b6000600360003373ffffffffffffffffffffffffffffffffffffffff1673ffffffffffffffffffffffffffffffffffffffff1681526020019081526020016000206001015490506000600360003373ffffffffffffffffffffffffffffffffffffffff1673ffffffffffffffffffffffffffffffffffffffff168152602001908152602001600020600101819055506000600360003373ffffffffffffffffffffffffffffffffffffffff1673ffffffffffffffffffffffffffffffffffffffff168152602001908152602001600020600001819055503373ffffffffffffffffffffffffffffffffffffffff166108fc829081150290604051600060405180830381858888f1935050505015801561097c573d6000803e3d6000fd5b5050565b6004826040516020018082805190602001908083835b602083106109b95780518252602082019150602081019050602083039250610996565b6001836020036101000a0380198251168184511680821785525050505050509050019150506040516020818303038152906040528051906020012060001c816109fe57fe5b06600160003373ffffffffffffffffffffffffffffffffffffffff1673ffffffffffffffffffffffffffffffffffffffff1681526020019081526020016000206000858152602001908152602001600020819055507fc13d60fe9dffdb6908d2d446cd18134373a51db0738ee04f296eeb9128121cbc600160003373ffffffffffffffffffffffffffffffffffffffff1673ffffffffffffffffffffffffffffffffffffffff1681526020019081526020016000206000600260003373ffffffffffffffffffffffffffffffffffffffff1673ffffffffffffffffffffffffffffffffffffffff168152602001908152602001600020548152602001908152602001600020546040518082815260200191505060405180910390a1505050565b6000809054906101000a900473ffffffffffffffffffffffffffffffffffffffff1673ffffffffffffffffffffffffffffffffffffffff163373ffffffffffffffffffffffffffffffffffffffff1614610b7757600080fd5b34600360003073ffffffffffffffffffffffffffffffffffffffff1673ffffffffffffffffffffffffffffffffffffffff16815260200190815260200160002060000181905550565b60003073ffffffffffffffffffffffffffffffffffffffff1631905090565b6000600360003373ffffffffffffffffffffffffffffffffffffffff1673ffffffffffffffffffffffffffffffffffffffff16815260200190815260200160002060010154905090565b6000809054906101000a900473ffffffffffffffffffffffffffffffffffffffff1673ffffffffffffffffffffffffffffffffffffffff163373ffffffffffffffffffffffffffffffffffffffff1614610c8257600080fd5b60003390508073ffffffffffffffffffffffffffffffffffffffff16ff5b6000809054906101000a900473ffffffffffffffffffffffffffffffffffffffff1673ffffffffffffffffffffffffffffffffffffffff163373ffffffffffffffffffffffffffffffffffffffff1614610cf957600080fd5b3373ffffffffffffffffffffffffffffffffffffffff166108fc3073ffffffffffffffffffffffffffffffffffffffff16319081150290604051600060405180830381858888f19350505050158015610d56573d6000803e3d6000fd5b50565b6000809054906101000a900473ffffffffffffffffffffffffffffffffffffffff1681565b67016345785d8a0000341015610ddf576040517f08c379a000000000000000000000000000000000000000000000000000000000815260040180806020018281038252603a8152602001806118e1603a913960400191505060405180910390fd5b3073ffffffffffffffffffffffffffffffffffffffff16316002340210610e51576040517f08c379a00000000000000000000000000000000000000000000000000000000081526004018080602001828103825260308152602001806118906030913960400191505060405180910390fd5b3073ffffffffffffffffffffffffffffffffffffffff163134600202600360003373ffffffffffffffffffffffffffffffffffffffff1673ffffffffffffffffffffffffffffffffffffffff168152602001908152602001600020600101540110610f07576040517f08c379a000000000000000000000000000000000000000000000000000000000815260040180806020018281038252602c81526020018061191b602c913960400191505060405180910390fd5b6000809054906101000a900473ffffffffffffffffffffffffffffffffffffffff1673ffffffffffffffffffffffffffffffffffffffff163373ffffffffffffffffffffffffffffffffffffffff161415610fad576040517f08c379a00000000000000000000000000000000000000000000000000000000081526004018080602001828103825260218152602001806118c06021913960400191505060405180910390fd5b34600360003373ffffffffffffffffffffffffffffffffffffffff1673ffffffffffffffffffffffffffffffffffffffff16815260200190815260200160002060000181905550610ffc611008565b6110058161129d565b50565b6000809050600062030d40905061101d611129565b507fc4dc360d0a9c0677a3379ae0a3d81e887f761e65fdf3d7e00859d1bcd3c473896040518080602001828103825260368152602001806119476036913960400191505060405180910390a15050565b6001602052816000526040600020602052806000526040600020600091509150505481565b6000600160003373ffffffffffffffffffffffffffffffffffffffff1673ffffffffffffffffffffffffffffffffffffffff1681526020019081526020016000206000600260003373ffffffffffffffffffffffffffffffffffffffff1673ffffffffffffffffffffffffffffffffffffffff16815260200190815260200160002054815260200190815260200160002054905090565b600060405180807f746573740000000000000000000000000000000000000000000000000000000081525060040190506040518091039020600260003373ffffffffffffffffffffffffffffffffffffffff1673ffffffffffffffffffffffffffffffffffffffff16815260200190815260200160002081905550611258600260003373ffffffffffffffffffffffffffffffffffffffff1673ffffffffffffffffffffffffffffffffffffffff168152602001908152602001600020546040518060400160405280600181526020017f32000000000000000000000000000000000000000000000000000000000000008152506040518060400160405280600481526020017f7465737400000000000000000000000000000000000000000000000000000000815250610980565b600260003373ffffffffffffffffffffffffffffffffffffffff1673ffffffffffffffffffffffffffffffffffffffff16815260200190815260200160002054905090565b6000600160003373ffffffffffffffffffffffffffffffffffffffff1673ffffffffffffffffffffffffffffffffffffffff1681526020019081526020016000206000600260003373ffffffffffffffffffffffffffffffffffffffff1673ffffffffffffffffffffffffffffffffffffffff1681526020019081526020016000205481526020019081526020016000205490506000811480156113f7575060405160200180807f4865616473000000000000000000000000000000000000000000000000000000815250600501905060405160208183030381529060405280519060200120826040516020018082805190602001908083835b602083106113ba5780518252602082019150602081019050602083039250611397565b6001836020036101000a03801982511681845116808217855250505050505090500191505060405160208183030381529060405280519060200120145b1561153057600360003373ffffffffffffffffffffffffffffffffffffffff1673ffffffffffffffffffffffffffffffffffffffff16815260200190815260200160002060000154600202600360003373ffffffffffffffffffffffffffffffffffffffff1673ffffffffffffffffffffffffffffffffffffffff168152602001908152602001600020600101600082825401925050819055506000600360003373ffffffffffffffffffffffffffffffffffffffff1673ffffffffffffffffffffffffffffffffffffffff16815260200190815260200160002060000181905550600360003373ffffffffffffffffffffffffffffffffffffffff1673ffffffffffffffffffffffffffffffffffffffff16815260200190815260200160002060020160008154809291906001019190505550611854565b6001811480156115f6575060405160200180807f5461696c73000000000000000000000000000000000000000000000000000000815250600501905060405160208183030381529060405280519060200120826040516020018082805190602001908083835b602083106115b95780518252602082019150602081019050602083039250611596565b6001836020036101000a03801982511681845116808217855250505050505090500191505060405160208183030381529060405280519060200120145b1561172f57600360003373ffffffffffffffffffffffffffffffffffffffff1673ffffffffffffffffffffffffffffffffffffffff16815260200190815260200160002060000154600202600360003373ffffffffffffffffffffffffffffffffffffffff1673ffffffffffffffffffffffffffffffffffffffff168152602001908152602001600020600101600082825401925050819055506000600360003373ffffffffffffffffffffffffffffffffffffffff1673ffffffffffffffffffffffffffffffffffffffff16815260200190815260200160002060000181905550600360003373ffffffffffffffffffffffffffffffffffffffff1673ffffffffffffffffffffffffffffffffffffffff16815260200190815260200160002060020160008154809291906001019190505550611853565b600360003373ffffffffffffffffffffffffffffffffffffffff1673ffffffffffffffffffffffffffffffffffffffff16815260200190815260200160002060000154600360003073ffffffffffffffffffffffffffffffffffffffff1673ffffffffffffffffffffffffffffffffffffffff168152602001908152602001600020600001819055506000600360003373ffffffffffffffffffffffffffffffffffffffff1673ffffffffffffffffffffffffffffffffffffffff16815260200190815260200160002060000181905550600360003373ffffffffffffffffffffffffffffffffffffffff1673ffffffffffffffffffffffffffffffffffffffff168152602001908152602001600020600301600081548092919060010191905055505b5b7f888ea2435479e7986dcaef778dfd65df5aeb458b8d46acb3889df43451838da5816040518082815260200191505060405180910390a1505056fe42657474696e6720616d6f756e742069732067726561746572207468616e20636f6e74726163742062616c616e63652e436f6e7472616374206f776e65722063616e6e6f7420706c61636520626574732e596f75206e65656420746f20706c6163652061206265742067726561746572207468616e206f7220657175616c20746f20302e3120657468657257697468647261772062616c616e6365206578636565647320636f6e747261637427732062616c616e63652e50726f7661626c65207175657279207761732073656e742c207374616e64696e6720627920666f722074686520616e737765722e2e2ea265627a7a723158207ec2c6a8f1f77a4d9b2b5c7cfb3468bda48e342608330c9ac129e96df41268b064736f6c634300050c003250726f7661626c65207175657279207761732073656e742c207374616e64696e6720627920666f722074686520616e737765722e2e2e",
  "source": "pragma solidity 0.5.12;\nimport \"./Ownable.sol\";\nimport \"./OracleCode.sol\";\nimport \"./Destroyable.sol\";\n\ncontract CoinFlip is Ownable, sendOracleQuery, Destroyable{\n\n    mapping(address => Player) _Players;\n\n    event success(uint256 num);\n\n    struct Player{\n        uint256 balanceDeposited;\n        uint256 balanceWon;\n        uint256 wins;\n        uint256 losses;\n        uint256 randomInt;\n    }\n\n    function betAmount(string memory option) public payable{\n        require(msg.value >= 0.1 ether, \"You need to place a bet greater than or equal to 0.1 ether\");\n        require(msg.value * 2 < address(this).balance, \"Betting amount is greater than contract balance.\");\n        require((_Players[msg.sender].balanceWon + (2 * msg.value)) < address(this).balance, \"Withdraw balance exceeds contract's balance.\");\n        require(msg.sender != owner, \"Contract owner cannot place bets.\");\n        _Players[msg.sender].balanceDeposited = msg.value;\n        update();\n        headsOrTails(option);\n    }\n\n    function headsOrTails(string memory option) private {\n        uint256 value = randomInt[msg.sender][queryIDs[msg.sender]];\n        if(value == 0 && keccak256(abi.encodePacked(option)) == keccak256(abi.encodePacked(\"Heads\"))){\n            _Players[msg.sender].balanceWon += 2 * _Players[msg.sender].balanceDeposited;\n            _Players[msg.sender].balanceDeposited = 0;\n            _Players[msg.sender].wins++;\n        }\n        else if (value == 1 && keccak256(abi.encodePacked(option)) == keccak256(abi.encodePacked(\"Tails\"))){\n          _Players[msg.sender].balanceWon += 2 * _Players[msg.sender].balanceDeposited;\n            _Players[msg.sender].balanceDeposited = 0;\n            _Players[msg.sender].wins++;\n        }\n        else{\n            _Players[address(this)].balanceDeposited = _Players[msg.sender].balanceDeposited;\n            _Players[msg.sender].balanceDeposited = 0;\n            _Players[msg.sender].losses++;\n        }\n        emit success(value);\n    }\n\n    function claimRewards() public payable{\n        require(_Players[msg.sender].balanceWon >= 0.1 ether, \"You have no rewards to claim.\");\n        require(address(this).balance > _Players[msg.sender].balanceWon, \"Withdraw balance exceeds contract's balance.\");\n        uint256 amount = _Players[msg.sender].balanceWon;\n        _Players[msg.sender].balanceWon = 0;\n        _Players[msg.sender].balanceDeposited =0;\n        msg.sender.transfer(amount);\n    }\n    function withdrawAll() public payable onlyOwner{\n        msg.sender.transfer(address(this).balance);\n    }\n\n    function checkContractBalance() public view returns(uint256){\n        return address(this).balance;\n    }\n\n    function depositIntoContract() public payable onlyOwner{\n         _Players[address(this)].balanceDeposited = msg.value;\n    }\n\n    function getAccountBalance() public view returns(uint256){\n        return _Players[msg.sender].balanceWon;\n    }\n\n    function getPlayer() public view returns(uint256, uint256, uint256, uint256, uint256){\n        return (_Players[msg.sender].balanceDeposited, _Players[msg.sender].balanceWon, _Players[msg.sender].wins, _Players[msg.sender].losses, _Players[msg.sender].randomInt);\n    }\n\n}\n",
  "sourcePath": "C:/Users/skuma/Documents/Blockchain Homework/Ethereum Smart Contract Programming 201/CoinFlip Phase Two/CoinFlip/contracts/CoinFlip.sol",
  "compiler": {
    "name": "solc",
    "version": "0.5.12+commit.7709ece9.Emscripten.clang"
  },
  "schemaVersion": "3.0.16",
  "updatedAt": "2021-02-11T01:49:41.811Z",
  "devdoc": {
    "methods": {}
  },
  "userdoc": {
    "methods": {}
  }
}