{
  "contractName": "Destroyable",
  "abi": [
    {
      "constant": true,
      "inputs": [],
      "name": "owner",
      "outputs": [
        {
          "internalType": "address",
          "name": "",
          "type": "address"
        }
      ],
      "payable": false,
      "stateMutability": "view",
      "type": "function"
    },
    {
      "constant": false,
      "inputs": [],
      "name": "destroy",
      "outputs": [],
      "payable": false,
      "stateMutability": "nonpayable",
      "type": "function"
    }
  ],
  "bytecode": "0x6080604052336000806101000a81548173ffffffffffffffffffffffffffffffffffffffff021916908373ffffffffffffffffffffffffffffffffffffffff160217905550610160806100536000396000f3fe608060405234801561001057600080fd5b50600436106100365760003560e01c806383197ef01461003b5780638da5cb5b14610045575b600080fd5b61004361008f565b005b61004d610106565b604051808273ffffffffffffffffffffffffffffffffffffffff1673ffffffffffffffffffffffffffffffffffffffff16815260200191505060405180910390f35b6000809054906101000a900473ffffffffffffffffffffffffffffffffffffffff1673ffffffffffffffffffffffffffffffffffffffff163373ffffffffffffffffffffffffffffffffffffffff16146100e857600080fd5b60003390508073ffffffffffffffffffffffffffffffffffffffff16ff5b6000809054906101000a900473ffffffffffffffffffffffffffffffffffffffff168156fea265627a7a72315820067afab7192f2dae4d69d3881d5b06c9e35d1f6266528e07881d0366bfb1ae4464736f6c634300050c0032",
  "source": "pragma solidity 0.5.12;\r\nimport \"./Ownable.sol\";\r\n\r\ncontract Destroyable is Ownable {\r\n\r\n  function destroy() public onlyOwner {\r\n    address payable receiver = msg.sender;\r\n    selfdestruct(receiver);\r\n  }\r\n}\r\n",
  "sourcePath": "C:\\Users\\skuma\\Documents\\Blockchain Homework\\Ethereum Smart Contract Programming 201\\CoinFlip Phase Two\\CoinFlip\\contracts\\Destroyable.sol",
  "compiler": {
    "name": "solc",
    "version": "0.5.12+commit.7709ece9.Emscripten.clang"
  },
  "schemaVersion": "3.0.16",
  "updatedAt": "2021-02-11T02:04:04.843Z",
  "devdoc": {
    "methods": {}
  },
  "userdoc": {
    "methods": {}
  }
}